{
  "_format": "hh-sol-artifact-1",
  "contractName": "Web3Mint",
  "sourceName": "contracts/Web3Mint.sol",
  "abi": [
    {
      "inputs": [],
      "stateMutability": "nonpayable",
      "type": "constructor"
    },
    {
      "anonymous": false,
      "inputs": [
        {
          "indexed": true,
          "internalType": "address",
          "name": "owner",
          "type": "address"
        },
        {
          "indexed": true,
          "internalType": "address",
          "name": "approved",
          "type": "address"
        },
        {
          "indexed": true,
          "internalType": "uint256",
          "name": "tokenId",
          "type": "uint256"
        }
      ],
      "name": "Approval",
      "type": "event"
    },
    {
      "anonymous": false,
      "inputs": [
        {
          "indexed": true,
          "internalType": "address",
          "name": "owner",
          "type": "address"
        },
        {
          "indexed": true,
          "internalType": "address",
          "name": "operator",
          "type": "address"
        },
        {
          "indexed": false,
          "internalType": "bool",
          "name": "approved",
          "type": "bool"
        }
      ],
      "name": "ApprovalForAll",
      "type": "event"
    },
    {
      "anonymous": false,
      "inputs": [
        {
          "indexed": true,
          "internalType": "address",
          "name": "from",
          "type": "address"
        },
        {
          "indexed": true,
          "internalType": "address",
          "name": "to",
          "type": "address"
        },
        {
          "indexed": true,
          "internalType": "uint256",
          "name": "tokenId",
          "type": "uint256"
        }
      ],
      "name": "Transfer",
      "type": "event"
    },
    {
      "inputs": [
        {
          "internalType": "address",
          "name": "to",
          "type": "address"
        },
        {
          "internalType": "uint256",
          "name": "tokenId",
          "type": "uint256"
        }
      ],
      "name": "approve",
      "outputs": [],
      "stateMutability": "nonpayable",
      "type": "function"
    },
    {
      "inputs": [
        {
          "internalType": "address",
          "name": "owner",
          "type": "address"
        }
      ],
      "name": "balanceOf",
      "outputs": [
        {
          "internalType": "uint256",
          "name": "",
          "type": "uint256"
        }
      ],
      "stateMutability": "view",
      "type": "function"
    },
    {
      "inputs": [
        {
          "internalType": "uint256",
          "name": "tokenId",
          "type": "uint256"
        }
      ],
      "name": "getApproved",
      "outputs": [
        {
          "internalType": "address",
          "name": "",
          "type": "address"
        }
      ],
      "stateMutability": "view",
      "type": "function"
    },
    {
      "inputs": [
        {
          "internalType": "address",
          "name": "owner",
          "type": "address"
        },
        {
          "internalType": "address",
          "name": "operator",
          "type": "address"
        }
      ],
      "name": "isApprovedForAll",
      "outputs": [
        {
          "internalType": "bool",
          "name": "",
          "type": "bool"
        }
      ],
      "stateMutability": "view",
      "type": "function"
    },
    {
      "inputs": [
        {
          "internalType": "string",
          "name": "name",
          "type": "string"
        },
        {
          "internalType": "string",
          "name": "imageURI",
          "type": "string"
        }
      ],
      "name": "mintIpfsNFT",
      "outputs": [],
      "stateMutability": "nonpayable",
      "type": "function"
    },
    {
      "inputs": [],
      "name": "name",
      "outputs": [
        {
          "internalType": "string",
          "name": "",
          "type": "string"
        }
      ],
      "stateMutability": "view",
      "type": "function"
    },
    {
      "inputs": [
        {
          "internalType": "uint256",
          "name": "tokenId",
          "type": "uint256"
        }
      ],
      "name": "ownerOf",
      "outputs": [
        {
          "internalType": "address",
          "name": "",
          "type": "address"
        }
      ],
      "stateMutability": "view",
      "type": "function"
    },
    {
      "inputs": [
        {
          "internalType": "address",
          "name": "from",
          "type": "address"
        },
        {
          "internalType": "address",
          "name": "to",
          "type": "address"
        },
        {
          "internalType": "uint256",
          "name": "tokenId",
          "type": "uint256"
        }
      ],
      "name": "safeTransferFrom",
      "outputs": [],
      "stateMutability": "nonpayable",
      "type": "function"
    },
    {
      "inputs": [
        {
          "internalType": "address",
          "name": "from",
          "type": "address"
        },
        {
          "internalType": "address",
          "name": "to",
          "type": "address"
        },
        {
          "internalType": "uint256",
          "name": "tokenId",
          "type": "uint256"
        },
        {
          "internalType": "bytes",
          "name": "data",
          "type": "bytes"
        }
      ],
      "name": "safeTransferFrom",
      "outputs": [],
      "stateMutability": "nonpayable",
      "type": "function"
    },
    {
      "inputs": [
        {
          "internalType": "address",
          "name": "operator",
          "type": "address"
        },
        {
          "internalType": "bool",
          "name": "approved",
          "type": "bool"
        }
      ],
      "name": "setApprovalForAll",
      "outputs": [],
      "stateMutability": "nonpayable",
      "type": "function"
    },
    {
      "inputs": [
        {
          "internalType": "bytes4",
          "name": "interfaceId",
          "type": "bytes4"
        }
      ],
      "name": "supportsInterface",
      "outputs": [
        {
          "internalType": "bool",
          "name": "",
          "type": "bool"
        }
      ],
      "stateMutability": "view",
      "type": "function"
    },
    {
      "inputs": [],
      "name": "symbol",
      "outputs": [
        {
          "internalType": "string",
          "name": "",
          "type": "string"
        }
      ],
      "stateMutability": "view",
      "type": "function"
    },
    {
      "inputs": [
        {
          "internalType": "uint256",
          "name": "_tokenId",
          "type": "uint256"
        }
      ],
      "name": "tokenURI",
      "outputs": [
        {
          "internalType": "string",
          "name": "",
          "type": "string"
        }
      ],
      "stateMutability": "view",
      "type": "function"
    },
    {
      "inputs": [
        {
          "internalType": "address",
          "name": "from",
          "type": "address"
        },
        {
          "internalType": "address",
          "name": "to",
          "type": "address"
        },
        {
          "internalType": "uint256",
          "name": "tokenId",
          "type": "uint256"
        }
      ],
      "name": "transferFrom",
      "outputs": [],
      "stateMutability": "nonpayable",
      "type": "function"
    }
  ],
  "bytecode": "0x60806040523480156200001157600080fd5b506040518060400160405280600381526020017f4e465400000000000000000000000000000000000000000000000000000000008152506040518060400160405280600381526020017f6e6674000000000000000000000000000000000000000000000000000000000081525081600090816200008f91906200047c565b508060019081620000a191906200047c565b505050620000ef6040518060400160405280601881526020017f54686973206973206d79204e465420636f6e74726163742e0000000000000000815250620000f560201b62000a871760201c565b62000645565b62000195816040516024016200010c9190620005f2565b6040516020818303038152906040527f41304fac000000000000000000000000000000000000000000000000000000007bffffffffffffffffffffffffffffffffffffffffffffffffffffffff19166020820180517bffffffffffffffffffffffffffffffffffffffffffffffffffffffff83818316178352505050506200019860201b60201c565b50565b620001be81620001b9620001c160201b62000b2017620001e260201b60201c565b60201c565b50565b60006a636f6e736f6c652e6c6f679050600080835160208501845afa505050565b620001f660201b62001b7717819050919050565b6200020062000616565b565b600081519050919050565b7f4e487b7100000000000000000000000000000000000000000000000000000000600052604160045260246000fd5b7f4e487b7100000000000000000000000000000000000000000000000000000000600052602260045260246000fd5b600060028204905060018216806200028457607f821691505b6020821081036200029a57620002996200023c565b5b50919050565b60008190508160005260206000209050919050565b60006020601f8301049050919050565b600082821b905092915050565b600060088302620003047fffffffffffffffffffffffffffffffffffffffffffffffffffffffffffffffff82620002c5565b620003108683620002c5565b95508019841693508086168417925050509392505050565b6000819050919050565b6000819050919050565b60006200035d62000357620003518462000328565b62000332565b62000328565b9050919050565b6000819050919050565b62000379836200033c565b62000391620003888262000364565b848454620002d2565b825550505050565b600090565b620003a862000399565b620003b58184846200036e565b505050565b5b81811015620003dd57620003d16000826200039e565b600181019050620003bb565b5050565b601f8211156200042c57620003f681620002a0565b6200040184620002b5565b8101602085101562000411578190505b620004296200042085620002b5565b830182620003ba565b50505b505050565b600082821c905092915050565b6000620004516000198460080262000431565b1980831691505092915050565b60006200046c83836200043e565b9150826002028217905092915050565b620004878262000202565b67ffffffffffffffff811115620004a357620004a26200020d565b5b620004af82546200026b565b620004bc828285620003e1565b600060209050601f831160018114620004f45760008415620004df578287015190505b620004eb85826200045e565b8655506200055b565b601f1984166200050486620002a0565b60005b828110156200052e5784890151825560018201915060208501945060208101905062000507565b868310156200054e57848901516200054a601f8916826200043e565b8355505b6001600288020188555050505b505050505050565b600082825260208201905092915050565b60005b838110156200059457808201518184015260208101905062000577565b60008484015250505050565b6000601f19601f8301169050919050565b6000620005be8262000202565b620005ca818562000563565b9350620005dc81856020860162000574565b620005e781620005a0565b840191505092915050565b600060208201905081810360008301526200060e8184620005b1565b905092915050565b7f4e487b7100000000000000000000000000000000000000000000000000000000600052605160045260246000fd5b6130df80620006556000396000f3fe608060405234801561001057600080fd5b50600436106100ea5760003560e01c806370a082311161008c578063b88d4fde11610066578063b88d4fde1461025b578063c87b56dd14610277578063e985e9c5146102a7578063eb00195d146102d7576100ea565b806370a08231146101f157806395d89b4114610221578063a22cb4651461023f576100ea565b8063095ea7b3116100c8578063095ea7b31461016d57806323b872dd1461018957806342842e0e146101a55780636352211e146101c1576100ea565b806301ffc9a7146100ef57806306fdde031461011f578063081812fc1461013d575b600080fd5b61010960048036038101906101049190611bed565b6102f3565b6040516101169190611c35565b60405180910390f35b6101276103d5565b6040516101349190611ce0565b60405180910390f35b61015760048036038101906101529190611d38565b610467565b6040516101649190611da6565b60405180910390f35b61018760048036038101906101829190611ded565b6104ad565b005b6101a3600480360381019061019e9190611e2d565b6105c4565b005b6101bf60048036038101906101ba9190611e2d565b610624565b005b6101db60048036038101906101d69190611d38565b610644565b6040516101e89190611da6565b60405180910390f35b61020b60048036038101906102069190611e80565b6106ca565b6040516102189190611ebc565b60405180910390f35b610229610781565b6040516102369190611ce0565b60405180910390f35b61025960048036038101906102549190611f03565b610813565b005b61027560048036038101906102709190612078565b610829565b005b610291600480360381019061028c9190611d38565b61088b565b60405161029e9190611ce0565b60405180910390f35b6102c160048036038101906102bc91906120fb565b61093b565b6040516102ce9190611c35565b60405180910390f35b6102f160048036038101906102ec91906121dc565b6109cf565b005b60007f80ac58cd000000000000000000000000000000000000000000000000000000007bffffffffffffffffffffffffffffffffffffffffffffffffffffffff1916827bffffffffffffffffffffffffffffffffffffffffffffffffffffffff191614806103be57507f5b5e139f000000000000000000000000000000000000000000000000000000007bffffffffffffffffffffffffffffffffffffffffffffffffffffffff1916827bffffffffffffffffffffffffffffffffffffffffffffffffffffffff1916145b806103ce57506103cd82610b41565b5b9050919050565b6060600080546103e490612283565b80601f016020809104026020016040519081016040528092919081815260200182805461041090612283565b801561045d5780601f106104325761010080835404028352916020019161045d565b820191906000526020600020905b81548152906001019060200180831161044057829003601f168201915b5050505050905090565b600061047282610bab565b6004600083815260200190815260200160002060009054906101000a900473ffffffffffffffffffffffffffffffffffffffff169050919050565b60006104b882610644565b90508073ffffffffffffffffffffffffffffffffffffffff168373ffffffffffffffffffffffffffffffffffffffff1603610528576040517f08c379a000000000000000000000000000000000000000000000000000000000815260040161051f90612326565b60405180910390fd5b8073ffffffffffffffffffffffffffffffffffffffff16610547610bf6565b73ffffffffffffffffffffffffffffffffffffffff161480610576575061057581610570610bf6565b61093b565b5b6105b5576040517f08c379a00000000000000000000000000000000000000000000000000000000081526004016105ac906123b8565b60405180910390fd5b6105bf8383610bfe565b505050565b6105d56105cf610bf6565b82610cb7565b610614576040517f08c379a000000000000000000000000000000000000000000000000000000000815260040161060b9061244a565b60405180910390fd5b61061f838383610d4c565b505050565b61063f83838360405180602001604052806000815250610829565b505050565b60008061065083611045565b9050600073ffffffffffffffffffffffffffffffffffffffff168173ffffffffffffffffffffffffffffffffffffffff16036106c1576040517f08c379a00000000000000000000000000000000000000000000000000000000081526004016106b8906124b6565b60405180910390fd5b80915050919050565b60008073ffffffffffffffffffffffffffffffffffffffff168273ffffffffffffffffffffffffffffffffffffffff160361073a576040517f08c379a000000000000000000000000000000000000000000000000000000000815260040161073190612548565b60405180910390fd5b600360008373ffffffffffffffffffffffffffffffffffffffff1673ffffffffffffffffffffffffffffffffffffffff168152602001908152602001600020549050919050565b60606001805461079090612283565b80601f01602080910402602001604051908101604052809291908181526020018280546107bc90612283565b80156108095780601f106107de57610100808354040283529160200191610809565b820191906000526020600020905b8154815290600101906020018083116107ec57829003601f168201915b5050505050905090565b61082561081e610bf6565b8383611082565b5050565b61083a610834610bf6565b83610cb7565b610879576040517f08c379a00000000000000000000000000000000000000000000000000000000081526004016108709061244a565b60405180910390fd5b610885848484846111ee565b50505050565b6060600061090b600684815481106108a6576108a5612568565b5b90600052602060002090600202016000016108c08561124a565b600686815481106108d4576108d3612568565b5b90600052602060002090600202016001016040516020016108f7939291906127c1565b604051602081830303815290604052611318565b9050600081604051602001610920919061286a565b60405160208183030381529060405290508092505050919050565b6000600560008473ffffffffffffffffffffffffffffffffffffffff1673ffffffffffffffffffffffffffffffffffffffff16815260200190815260200160002060008373ffffffffffffffffffffffffffffffffffffffff1673ffffffffffffffffffffffffffffffffffffffff16815260200190815260200160002060009054906101000a900460ff16905092915050565b60006109db60076114af565b90506109e733826114bd565b600660405180604001604052808581526020018481525090806001815401808255809150506001900390600052602060002090600202016000909190919091506000820151816000019081610a3c9190612a23565b506020820151816001019081610a529190612a23565b505050610a786040518060600160405280602581526020016130456025913982336114db565b610a82600761157a565b505050565b610b1d81604051602401610a9b9190611ce0565b6040516020818303038152906040527f41304fac000000000000000000000000000000000000000000000000000000007bffffffffffffffffffffffffffffffffffffffffffffffffffffffff19166020820180517bffffffffffffffffffffffffffffffffffffffffffffffffffffffff8381831617835250505050611590565b50565b60006a636f6e736f6c652e6c6f679050600080835160208501845afa505050565b60007f01ffc9a7000000000000000000000000000000000000000000000000000000007bffffffffffffffffffffffffffffffffffffffffffffffffffffffff1916827bffffffffffffffffffffffffffffffffffffffffffffffffffffffff1916149050919050565b610bb4816115aa565b610bf3576040517f08c379a0000000000000000000000000000000000000000000000000000000008152600401610bea906124b6565b60405180910390fd5b50565b600033905090565b816004600083815260200190815260200160002060006101000a81548173ffffffffffffffffffffffffffffffffffffffff021916908373ffffffffffffffffffffffffffffffffffffffff160217905550808273ffffffffffffffffffffffffffffffffffffffff16610c7183610644565b73ffffffffffffffffffffffffffffffffffffffff167f8c5be1e5ebec7d5bd14f71427d1e84f3dd0314c0f7b2291e5b200ac8c7c3b92560405160405180910390a45050565b600080610cc383610644565b90508073ffffffffffffffffffffffffffffffffffffffff168473ffffffffffffffffffffffffffffffffffffffff161480610d055750610d04818561093b565b5b80610d4357508373ffffffffffffffffffffffffffffffffffffffff16610d2b84610467565b73ffffffffffffffffffffffffffffffffffffffff16145b91505092915050565b8273ffffffffffffffffffffffffffffffffffffffff16610d6c82610644565b73ffffffffffffffffffffffffffffffffffffffff1614610dc2576040517f08c379a0000000000000000000000000000000000000000000000000000000008152600401610db990612b67565b60405180910390fd5b600073ffffffffffffffffffffffffffffffffffffffff168273ffffffffffffffffffffffffffffffffffffffff1603610e31576040517f08c379a0000000000000000000000000000000000000000000000000000000008152600401610e2890612bf9565b60405180910390fd5b610e3e83838360016115eb565b8273ffffffffffffffffffffffffffffffffffffffff16610e5e82610644565b73ffffffffffffffffffffffffffffffffffffffff1614610eb4576040517f08c379a0000000000000000000000000000000000000000000000000000000008152600401610eab90612b67565b60405180910390fd5b6004600082815260200190815260200160002060006101000a81549073ffffffffffffffffffffffffffffffffffffffff02191690556001600360008573ffffffffffffffffffffffffffffffffffffffff1673ffffffffffffffffffffffffffffffffffffffff168152602001908152602001600020600082825403925050819055506001600360008473ffffffffffffffffffffffffffffffffffffffff1673ffffffffffffffffffffffffffffffffffffffff16815260200190815260200160002060008282540192505081905550816002600083815260200190815260200160002060006101000a81548173ffffffffffffffffffffffffffffffffffffffff021916908373ffffffffffffffffffffffffffffffffffffffff160217905550808273ffffffffffffffffffffffffffffffffffffffff168473ffffffffffffffffffffffffffffffffffffffff167fddf252ad1be2c89b69c2b068fc378daa952ba7f163c4a11628f55a4df523b3ef60405160405180910390a461104083838360016115f1565b505050565b60006002600083815260200190815260200160002060009054906101000a900473ffffffffffffffffffffffffffffffffffffffff169050919050565b8173ffffffffffffffffffffffffffffffffffffffff168373ffffffffffffffffffffffffffffffffffffffff16036110f0576040517f08c379a00000000000000000000000000000000000000000000000000000000081526004016110e790612c65565b60405180910390fd5b80600560008573ffffffffffffffffffffffffffffffffffffffff1673ffffffffffffffffffffffffffffffffffffffff16815260200190815260200160002060008473ffffffffffffffffffffffffffffffffffffffff1673ffffffffffffffffffffffffffffffffffffffff16815260200190815260200160002060006101000a81548160ff0219169083151502179055508173ffffffffffffffffffffffffffffffffffffffff168373ffffffffffffffffffffffffffffffffffffffff167f17307eab39ab6107e8899845ad3d59bd9653f200f220920489ca2b5937696c31836040516111e19190611c35565b60405180910390a3505050565b6111f9848484610d4c565b611205848484846115f7565b611244576040517f08c379a000000000000000000000000000000000000000000000000000000000815260040161123b90612cf7565b60405180910390fd5b50505050565b6060600060016112598461177e565b01905060008167ffffffffffffffff81111561127857611277611f4d565b5b6040519080825280601f01601f1916602001820160405280156112aa5781602001600182028036833780820191505090505b509050600082602001820190505b60011561130d578080600190039150507f3031323334353637383961626364656600000000000000000000000000000000600a86061a8153600a858161130157611300612d17565b5b049450600085036112b8575b819350505050919050565b60606000825190506000810361134057604051806020016040528060008152509150506114aa565b600060036002836113519190612d75565b61135b9190612da9565b60046113679190612dda565b905060006020826113789190612d75565b67ffffffffffffffff81111561139157611390611f4d565b5b6040519080825280601f01601f1916602001820160405280156113c35781602001600182028036833780820191505090505b509050600060405180606001604052806040815260200161306a604091399050600181016020830160005b868110156114675760038101905062ffffff818a015116603f8160121c168401518060081b905060ff603f83600c1c1686015116810190508060081b905060ff603f8360061c1686015116810190508060081b905060ff603f831686015116810190508060e01b905080845260048401935050506113ee565b50600386066001811461148157600281146114915761149c565b613d3d60f01b600283035261149c565b603d60f81b60018303525b508484525050819450505050505b919050565b600081600001549050919050565b6114d78282604051806020016040528060008152506118d1565b5050565b6115758383836040516024016114f393929190612e1c565b6040516020818303038152906040527f1c7ec448000000000000000000000000000000000000000000000000000000007bffffffffffffffffffffffffffffffffffffffffffffffffffffffff19166020820180517bffffffffffffffffffffffffffffffffffffffffffffffffffffffff8381831617835250505050611590565b505050565b6001816000016000828254019250508190555050565b6115a78161159f610b2061192c565b63ffffffff16565b50565b60008073ffffffffffffffffffffffffffffffffffffffff166115cc83611045565b73ffffffffffffffffffffffffffffffffffffffff1614159050919050565b50505050565b50505050565b60006116188473ffffffffffffffffffffffffffffffffffffffff16611937565b15611771578373ffffffffffffffffffffffffffffffffffffffff1663150b7a02611641610bf6565b8786866040518563ffffffff1660e01b81526004016116639493929190612eaf565b6020604051808303816000875af192505050801561169f57506040513d601f19601f8201168201806040525081019061169c9190612f10565b60015b611721573d80600081146116cf576040519150601f19603f3d011682016040523d82523d6000602084013e6116d4565b606091505b506000815103611719576040517f08c379a000000000000000000000000000000000000000000000000000000000815260040161171090612cf7565b60405180910390fd5b805181602001fd5b63150b7a0260e01b7bffffffffffffffffffffffffffffffffffffffffffffffffffffffff1916817bffffffffffffffffffffffffffffffffffffffffffffffffffffffff191614915050611776565b600190505b949350505050565b600080600090507a184f03e93ff9f4daa797ed6e38ed64bf6a1f01000000000000000083106117dc577a184f03e93ff9f4daa797ed6e38ed64bf6a1f01000000000000000083816117d2576117d1612d17565b5b0492506040810190505b6d04ee2d6d415b85acef81000000008310611819576d04ee2d6d415b85acef8100000000838161180f5761180e612d17565b5b0492506020810190505b662386f26fc10000831061184857662386f26fc10000838161183e5761183d612d17565b5b0492506010810190505b6305f5e1008310611871576305f5e100838161186757611866612d17565b5b0492506008810190505b612710831061189657612710838161188c5761188b612d17565b5b0492506004810190505b606483106118b957606483816118af576118ae612d17565b5b0492506002810190505b600a83106118c8576001810190505b80915050919050565b6118db838361195a565b6118e860008484846115f7565b611927576040517f08c379a000000000000000000000000000000000000000000000000000000000815260040161191e90612cf7565b60405180910390fd5b505050565b611b77819050919050565b6000808273ffffffffffffffffffffffffffffffffffffffff163b119050919050565b600073ffffffffffffffffffffffffffffffffffffffff168273ffffffffffffffffffffffffffffffffffffffff16036119c9576040517f08c379a00000000000000000000000000000000000000000000000000000000081526004016119c090612f89565b60405180910390fd5b6119d2816115aa565b15611a12576040517f08c379a0000000000000000000000000000000000000000000000000000000008152600401611a0990612ff5565b60405180910390fd5b611a206000838360016115eb565b611a29816115aa565b15611a69576040517f08c379a0000000000000000000000000000000000000000000000000000000008152600401611a6090612ff5565b60405180910390fd5b6001600360008473ffffffffffffffffffffffffffffffffffffffff1673ffffffffffffffffffffffffffffffffffffffff16815260200190815260200160002060008282540192505081905550816002600083815260200190815260200160002060006101000a81548173ffffffffffffffffffffffffffffffffffffffff021916908373ffffffffffffffffffffffffffffffffffffffff160217905550808273ffffffffffffffffffffffffffffffffffffffff16600073ffffffffffffffffffffffffffffffffffffffff167fddf252ad1be2c89b69c2b068fc378daa952ba7f163c4a11628f55a4df523b3ef60405160405180910390a4611b736000838360016115f1565b5050565b611b7f613015565b565b6000604051905090565b600080fd5b600080fd5b60007fffffffff0000000000000000000000000000000000000000000000000000000082169050919050565b611bca81611b95565b8114611bd557600080fd5b50565b600081359050611be781611bc1565b92915050565b600060208284031215611c0357611c02611b8b565b5b6000611c1184828501611bd8565b91505092915050565b60008115159050919050565b611c2f81611c1a565b82525050565b6000602082019050611c4a6000830184611c26565b92915050565b600081519050919050565b600082825260208201905092915050565b60005b83811015611c8a578082015181840152602081019050611c6f565b60008484015250505050565b6000601f19601f8301169050919050565b6000611cb282611c50565b611cbc8185611c5b565b9350611ccc818560208601611c6c565b611cd581611c96565b840191505092915050565b60006020820190508181036000830152611cfa8184611ca7565b905092915050565b6000819050919050565b611d1581611d02565b8114611d2057600080fd5b50565b600081359050611d3281611d0c565b92915050565b600060208284031215611d4e57611d4d611b8b565b5b6000611d5c84828501611d23565b91505092915050565b600073ffffffffffffffffffffffffffffffffffffffff82169050919050565b6000611d9082611d65565b9050919050565b611da081611d85565b82525050565b6000602082019050611dbb6000830184611d97565b92915050565b611dca81611d85565b8114611dd557600080fd5b50565b600081359050611de781611dc1565b92915050565b60008060408385031215611e0457611e03611b8b565b5b6000611e1285828601611dd8565b9250506020611e2385828601611d23565b9150509250929050565b600080600060608486031215611e4657611e45611b8b565b5b6000611e5486828701611dd8565b9350506020611e6586828701611dd8565b9250506040611e7686828701611d23565b9150509250925092565b600060208284031215611e9657611e95611b8b565b5b6000611ea484828501611dd8565b91505092915050565b611eb681611d02565b82525050565b6000602082019050611ed16000830184611ead565b92915050565b611ee081611c1a565b8114611eeb57600080fd5b50565b600081359050611efd81611ed7565b92915050565b60008060408385031215611f1a57611f19611b8b565b5b6000611f2885828601611dd8565b9250506020611f3985828601611eee565b9150509250929050565b600080fd5b600080fd5b7f4e487b7100000000000000000000000000000000000000000000000000000000600052604160045260246000fd5b611f8582611c96565b810181811067ffffffffffffffff82111715611fa457611fa3611f4d565b5b80604052505050565b6000611fb7611b81565b9050611fc38282611f7c565b919050565b600067ffffffffffffffff821115611fe357611fe2611f4d565b5b611fec82611c96565b9050602081019050919050565b82818337600083830152505050565b600061201b61201684611fc8565b611fad565b90508281526020810184848401111561203757612036611f48565b5b612042848285611ff9565b509392505050565b600082601f83011261205f5761205e611f43565b5b813561206f848260208601612008565b91505092915050565b6000806000806080858703121561209257612091611b8b565b5b60006120a087828801611dd8565b94505060206120b187828801611dd8565b93505060406120c287828801611d23565b925050606085013567ffffffffffffffff8111156120e3576120e2611b90565b5b6120ef8782880161204a565b91505092959194509250565b6000806040838503121561211257612111611b8b565b5b600061212085828601611dd8565b925050602061213185828601611dd8565b9150509250929050565b600067ffffffffffffffff82111561215657612155611f4d565b5b61215f82611c96565b9050602081019050919050565b600061217f61217a8461213b565b611fad565b90508281526020810184848401111561219b5761219a611f48565b5b6121a6848285611ff9565b509392505050565b600082601f8301126121c3576121c2611f43565b5b81356121d384826020860161216c565b91505092915050565b600080604083850312156121f3576121f2611b8b565b5b600083013567ffffffffffffffff81111561221157612210611b90565b5b61221d858286016121ae565b925050602083013567ffffffffffffffff81111561223e5761223d611b90565b5b61224a858286016121ae565b9150509250929050565b7f4e487b7100000000000000000000000000000000000000000000000000000000600052602260045260246000fd5b6000600282049050600182168061229b57607f821691505b6020821081036122ae576122ad612254565b5b50919050565b7f4552433732313a20617070726f76616c20746f2063757272656e74206f776e6560008201527f7200000000000000000000000000000000000000000000000000000000000000602082015250565b6000612310602183611c5b565b915061231b826122b4565b604082019050919050565b6000602082019050818103600083015261233f81612303565b9050919050565b7f4552433732313a20617070726f76652063616c6c6572206973206e6f7420746f60008201527f6b656e206f776e6572206f7220617070726f76656420666f7220616c6c000000602082015250565b60006123a2603d83611c5b565b91506123ad82612346565b604082019050919050565b600060208201905081810360008301526123d181612395565b9050919050565b7f4552433732313a2063616c6c6572206973206e6f7420746f6b656e206f776e6560008201527f72206f7220617070726f76656400000000000000000000000000000000000000602082015250565b6000612434602d83611c5b565b915061243f826123d8565b604082019050919050565b6000602082019050818103600083015261246381612427565b9050919050565b7f4552433732313a20696e76616c696420746f6b656e2049440000000000000000600082015250565b60006124a0601883611c5b565b91506124ab8261246a565b602082019050919050565b600060208201905081810360008301526124cf81612493565b9050919050565b7f4552433732313a2061646472657373207a65726f206973206e6f74206120766160008201527f6c6964206f776e65720000000000000000000000000000000000000000000000602082015250565b6000612532602983611c5b565b915061253d826124d6565b604082019050919050565b6000602082019050818103600083015261256181612525565b9050919050565b7f4e487b7100000000000000000000000000000000000000000000000000000000600052603260045260246000fd5b600081905092915050565b7f7b226e616d65223a202200000000000000000000000000000000000000000000600082015250565b60006125d8600a83612597565b91506125e3826125a2565b600a82019050919050565b60008190508160005260206000209050919050565b6000815461261081612283565b61261a8186612597565b94506001821660008114612635576001811461264a5761267d565b60ff198316865281151582028601935061267d565b612653856125ee565b60005b8381101561267557815481890152600182019150602081019050612656565b838801955050505b50505092915050565b7f202d2d204e465420233a20000000000000000000000000000000000000000000600082015250565b60006126bc600b83612597565b91506126c782612686565b600b82019050919050565b60006126dd82611c50565b6126e78185612597565b93506126f7818560208601611c6c565b80840191505092915050565b7f222c20226465736372697074696f6e223a2022416e2065706963204e4654222c60008201527f2022696d616765223a2022697066733a2f2f0000000000000000000000000000602082015250565b600061275f603283612597565b915061276a82612703565b603282019050919050565b7f227d000000000000000000000000000000000000000000000000000000000000600082015250565b60006127ab600283612597565b91506127b682612775565b600282019050919050565b60006127cc826125cb565b91506127d88286612603565b91506127e3826126af565b91506127ef82856126d2565b91506127fa82612752565b91506128068284612603565b91506128118261279e565b9150819050949350505050565b7f646174613a6170706c69636174696f6e2f6a736f6e3b6261736536342c000000600082015250565b6000612854601d83612597565b915061285f8261281e565b601d82019050919050565b600061287582612847565b915061288182846126d2565b915081905092915050565b60006020601f8301049050919050565b600082821b905092915050565b6000600883026128d97fffffffffffffffffffffffffffffffffffffffffffffffffffffffffffffffff8261289c565b6128e3868361289c565b95508019841693508086168417925050509392505050565b6000819050919050565b600061292061291b61291684611d02565b6128fb565b611d02565b9050919050565b6000819050919050565b61293a83612905565b61294e61294682612927565b8484546128a9565b825550505050565b600090565b612963612956565b61296e818484612931565b505050565b5b818110156129925761298760008261295b565b600181019050612974565b5050565b601f8211156129d7576129a8816125ee565b6129b18461288c565b810160208510156129c0578190505b6129d46129cc8561288c565b830182612973565b50505b505050565b600082821c905092915050565b60006129fa600019846008026129dc565b1980831691505092915050565b6000612a1383836129e9565b9150826002028217905092915050565b612a2c82611c50565b67ffffffffffffffff811115612a4557612a44611f4d565b5b612a4f8254612283565b612a5a828285612996565b600060209050601f831160018114612a8d5760008415612a7b578287015190505b612a858582612a07565b865550612aed565b601f198416612a9b866125ee565b60005b82811015612ac357848901518255600182019150602085019450602081019050612a9e565b86831015612ae05784890151612adc601f8916826129e9565b8355505b6001600288020188555050505b505050505050565b7f4552433732313a207472616e736665722066726f6d20696e636f72726563742060008201527f6f776e6572000000000000000000000000000000000000000000000000000000602082015250565b6000612b51602583611c5b565b9150612b5c82612af5565b604082019050919050565b60006020820190508181036000830152612b8081612b44565b9050919050565b7f4552433732313a207472616e7366657220746f20746865207a65726f2061646460008201527f7265737300000000000000000000000000000000000000000000000000000000602082015250565b6000612be3602483611c5b565b9150612bee82612b87565b604082019050919050565b60006020820190508181036000830152612c1281612bd6565b9050919050565b7f4552433732313a20617070726f766520746f2063616c6c657200000000000000600082015250565b6000612c4f601983611c5b565b9150612c5a82612c19565b602082019050919050565b60006020820190508181036000830152612c7e81612c42565b9050919050565b7f4552433732313a207472616e7366657220746f206e6f6e20455243373231526560008201527f63656976657220696d706c656d656e7465720000000000000000000000000000602082015250565b6000612ce1603283611c5b565b9150612cec82612c85565b604082019050919050565b60006020820190508181036000830152612d1081612cd4565b9050919050565b7f4e487b7100000000000000000000000000000000000000000000000000000000600052601260045260246000fd5b7f4e487b7100000000000000000000000000000000000000000000000000000000600052601160045260246000fd5b6000612d8082611d02565b9150612d8b83611d02565b9250828201905080821115612da357612da2612d46565b5b92915050565b6000612db482611d02565b9150612dbf83611d02565b925082612dcf57612dce612d17565b5b828204905092915050565b6000612de582611d02565b9150612df083611d02565b9250828202612dfe81611d02565b91508282048414831517612e1557612e14612d46565b5b5092915050565b60006060820190508181036000830152612e368186611ca7565b9050612e456020830185611ead565b612e526040830184611d97565b949350505050565b600081519050919050565b600082825260208201905092915050565b6000612e8182612e5a565b612e8b8185612e65565b9350612e9b818560208601611c6c565b612ea481611c96565b840191505092915050565b6000608082019050612ec46000830187611d97565b612ed16020830186611d97565b612ede6040830185611ead565b8181036060830152612ef08184612e76565b905095945050505050565b600081519050612f0a81611bc1565b92915050565b600060208284031215612f2657612f25611b8b565b5b6000612f3484828501612efb565b91505092915050565b7f4552433732313a206d696e7420746f20746865207a65726f2061646472657373600082015250565b6000612f73602083611c5b565b9150612f7e82612f3d565b602082019050919050565b60006020820190508181036000830152612fa281612f66565b9050919050565b7f4552433732313a20746f6b656e20616c7265616479206d696e74656400000000600082015250565b6000612fdf601c83611c5b565b9150612fea82612fa9565b602082019050919050565b6000602082019050818103600083015261300e81612fd2565b9050919050565b7f4e487b7100000000000000000000000000000000000000000000000000000000600052605160045260246000fdfe416e204e465420772f20494420257320686173206265656e206d696e74656420746f2025734142434445464748494a4b4c4d4e4f505152535455565758595a6162636465666768696a6b6c6d6e6f707172737475767778797a303132333435363738392b2fa2646970667358221220ac6a5e2d94c766cd4e663043f10fe66a9606992f680fcef2477582a312a5efc164736f6c63430008110033",
  "linkReferences": {},
  "deployedLinkReferences": {}
}