{
  "_format": "hh-sol-artifact-1",
  "contractName": "Web3Mint",
  "sourceName": "contracts/Web3Mint.sol",
  "abi": [
    {
      "inputs": [],
      "stateMutability": "nonpayable",
      "type": "constructor"
    },
    {
      "anonymous": false,
      "inputs": [
        {
          "indexed": true,
          "internalType": "address",
          "name": "owner",
          "type": "address"
        },
        {
          "indexed": true,
          "internalType": "address",
          "name": "approved",
          "type": "address"
        },
        {
          "indexed": true,
          "internalType": "uint256",
          "name": "tokenId",
          "type": "uint256"
        }
      ],
      "name": "Approval",
      "type": "event"
    },
    {
      "anonymous": false,
      "inputs": [
        {
          "indexed": true,
          "internalType": "address",
          "name": "owner",
          "type": "address"
        },
        {
          "indexed": true,
          "internalType": "address",
          "name": "operator",
          "type": "address"
        },
        {
          "indexed": false,
          "internalType": "bool",
          "name": "approved",
          "type": "bool"
        }
      ],
      "name": "ApprovalForAll",
      "type": "event"
    },
    {
      "anonymous": false,
      "inputs": [
        {
          "indexed": true,
          "internalType": "address",
          "name": "from",
          "type": "address"
        },
        {
          "indexed": true,
          "internalType": "address",
          "name": "to",
          "type": "address"
        },
        {
          "indexed": true,
          "internalType": "uint256",
          "name": "tokenId",
          "type": "uint256"
        }
      ],
      "name": "Transfer",
      "type": "event"
    },
    {
      "inputs": [
        {
          "internalType": "address",
          "name": "to",
          "type": "address"
        },
        {
          "internalType": "uint256",
          "name": "tokenId",
          "type": "uint256"
        }
      ],
      "name": "approve",
      "outputs": [],
      "stateMutability": "nonpayable",
      "type": "function"
    },
    {
      "inputs": [
        {
          "internalType": "address",
          "name": "owner",
          "type": "address"
        }
      ],
      "name": "balanceOf",
      "outputs": [
        {
          "internalType": "uint256",
          "name": "",
          "type": "uint256"
        }
      ],
      "stateMutability": "view",
      "type": "function"
    },
    {
      "inputs": [
        {
          "internalType": "uint256",
          "name": "tokenId",
          "type": "uint256"
        }
      ],
      "name": "getApproved",
      "outputs": [
        {
          "internalType": "address",
          "name": "",
          "type": "address"
        }
      ],
      "stateMutability": "view",
      "type": "function"
    },
    {
      "inputs": [
        {
          "internalType": "address",
          "name": "owner",
          "type": "address"
        },
        {
          "internalType": "address",
          "name": "operator",
          "type": "address"
        }
      ],
      "name": "isApprovedForAll",
      "outputs": [
        {
          "internalType": "bool",
          "name": "",
          "type": "bool"
        }
      ],
      "stateMutability": "view",
      "type": "function"
    },
    {
      "inputs": [
        {
          "internalType": "string",
          "name": "name",
          "type": "string"
        },
        {
          "internalType": "string",
          "name": "imageURI",
          "type": "string"
        }
      ],
      "name": "mintIpfsNFT",
      "outputs": [],
      "stateMutability": "nonpayable",
      "type": "function"
    },
    {
      "inputs": [],
      "name": "name",
      "outputs": [
        {
          "internalType": "string",
          "name": "",
          "type": "string"
        }
      ],
      "stateMutability": "view",
      "type": "function"
    },
    {
      "inputs": [
        {
          "internalType": "uint256",
          "name": "tokenId",
          "type": "uint256"
        }
      ],
      "name": "ownerOf",
      "outputs": [
        {
          "internalType": "address",
          "name": "",
          "type": "address"
        }
      ],
      "stateMutability": "view",
      "type": "function"
    },
    {
      "inputs": [
        {
          "internalType": "address",
          "name": "from",
          "type": "address"
        },
        {
          "internalType": "address",
          "name": "to",
          "type": "address"
        },
        {
          "internalType": "uint256",
          "name": "tokenId",
          "type": "uint256"
        }
      ],
      "name": "safeTransferFrom",
      "outputs": [],
      "stateMutability": "nonpayable",
      "type": "function"
    },
    {
      "inputs": [
        {
          "internalType": "address",
          "name": "from",
          "type": "address"
        },
        {
          "internalType": "address",
          "name": "to",
          "type": "address"
        },
        {
          "internalType": "uint256",
          "name": "tokenId",
          "type": "uint256"
        },
        {
          "internalType": "bytes",
          "name": "data",
          "type": "bytes"
        }
      ],
      "name": "safeTransferFrom",
      "outputs": [],
      "stateMutability": "nonpayable",
      "type": "function"
    },
    {
      "inputs": [
        {
          "internalType": "address",
          "name": "operator",
          "type": "address"
        },
        {
          "internalType": "bool",
          "name": "approved",
          "type": "bool"
        }
      ],
      "name": "setApprovalForAll",
      "outputs": [],
      "stateMutability": "nonpayable",
      "type": "function"
    },
    {
      "inputs": [
        {
          "internalType": "bytes4",
          "name": "interfaceId",
          "type": "bytes4"
        }
      ],
      "name": "supportsInterface",
      "outputs": [
        {
          "internalType": "bool",
          "name": "",
          "type": "bool"
        }
      ],
      "stateMutability": "view",
      "type": "function"
    },
    {
      "inputs": [],
      "name": "symbol",
      "outputs": [
        {
          "internalType": "string",
          "name": "",
          "type": "string"
        }
      ],
      "stateMutability": "view",
      "type": "function"
    },
    {
      "inputs": [
        {
          "internalType": "uint256",
          "name": "_tokenId",
          "type": "uint256"
        }
      ],
      "name": "tokenURI",
      "outputs": [
        {
          "internalType": "string",
          "name": "",
          "type": "string"
        }
      ],
      "stateMutability": "view",
      "type": "function"
    },
    {
      "inputs": [
        {
          "internalType": "address",
          "name": "from",
          "type": "address"
        },
        {
          "internalType": "address",
          "name": "to",
          "type": "address"
        },
        {
          "internalType": "uint256",
          "name": "tokenId",
          "type": "uint256"
        }
      ],
      "name": "transferFrom",
      "outputs": [],
      "stateMutability": "nonpayable",
      "type": "function"
    }
  ],
  "bytecode": "0x60806040523480156200001157600080fd5b506040518060400160405280600381526020017f4e465400000000000000000000000000000000000000000000000000000000008152506040518060400160405280600381526020017f6e6674000000000000000000000000000000000000000000000000000000000081525081600090816200008f919062000477565b508060019081620000a1919062000477565b505050620000ea6040518060400160405280601881526020017f54686973206973206d79204e465420636f6e74726163742e0000000000000000815250620000f060201b60201c565b62000640565b6200019081604051602401620001079190620005ed565b6040516020818303038152906040527f41304fac000000000000000000000000000000000000000000000000000000007bffffffffffffffffffffffffffffffffffffffffffffffffffffffff19166020820180517bffffffffffffffffffffffffffffffffffffffffffffffffffffffff83818316178352505050506200019360201b60201c565b50565b620001b981620001b4620001bc60201b62000a8717620001dd60201b60201c565b60201c565b50565b60006a636f6e736f6c652e6c6f679050600080835160208501845afa505050565b620001f160201b62001ade17819050919050565b620001fb62000611565b565b600081519050919050565b7f4e487b7100000000000000000000000000000000000000000000000000000000600052604160045260246000fd5b7f4e487b7100000000000000000000000000000000000000000000000000000000600052602260045260246000fd5b600060028204905060018216806200027f57607f821691505b60208210810362000295576200029462000237565b5b50919050565b60008190508160005260206000209050919050565b60006020601f8301049050919050565b600082821b905092915050565b600060088302620002ff7fffffffffffffffffffffffffffffffffffffffffffffffffffffffffffffffff82620002c0565b6200030b8683620002c0565b95508019841693508086168417925050509392505050565b6000819050919050565b6000819050919050565b600062000358620003526200034c8462000323565b6200032d565b62000323565b9050919050565b6000819050919050565b620003748362000337565b6200038c62000383826200035f565b848454620002cd565b825550505050565b600090565b620003a362000394565b620003b081848462000369565b505050565b5b81811015620003d857620003cc60008262000399565b600181019050620003b6565b5050565b601f8211156200042757620003f1816200029b565b620003fc84620002b0565b810160208510156200040c578190505b620004246200041b85620002b0565b830182620003b5565b50505b505050565b600082821c905092915050565b60006200044c600019846008026200042c565b1980831691505092915050565b600062000467838362000439565b9150826002028217905092915050565b6200048282620001fd565b67ffffffffffffffff8111156200049e576200049d62000208565b5b620004aa825462000266565b620004b7828285620003dc565b600060209050601f831160018114620004ef5760008415620004da578287015190505b620004e6858262000459565b86555062000556565b601f198416620004ff866200029b565b60005b82811015620005295784890151825560018201915060208501945060208101905062000502565b8683101562000549578489015162000545601f89168262000439565b8355505b6001600288020188555050505b505050505050565b600082825260208201905092915050565b60005b838110156200058f57808201518184015260208101905062000572565b60008484015250505050565b6000601f19601f8301169050919050565b6000620005b982620001fd565b620005c581856200055e565b9350620005d78185602086016200056f565b620005e2816200059b565b840191505092915050565b60006020820190508181036000830152620006098184620005ac565b905092915050565b7f4e487b7100000000000000000000000000000000000000000000000000000000600052605160045260246000fd5b61304680620006506000396000f3fe608060405234801561001057600080fd5b50600436106100ea5760003560e01c806370a082311161008c578063b88d4fde11610066578063b88d4fde1461025b578063c87b56dd14610277578063e985e9c5146102a7578063eb00195d146102d7576100ea565b806370a08231146101f157806395d89b4114610221578063a22cb4651461023f576100ea565b8063095ea7b3116100c8578063095ea7b31461016d57806323b872dd1461018957806342842e0e146101a55780636352211e146101c1576100ea565b806301ffc9a7146100ef57806306fdde031461011f578063081812fc1461013d575b600080fd5b61010960048036038101906101049190611b54565b6102f3565b6040516101169190611b9c565b60405180910390f35b6101276103d5565b6040516101349190611c47565b60405180910390f35b61015760048036038101906101529190611c9f565b610467565b6040516101649190611d0d565b60405180910390f35b61018760048036038101906101829190611d54565b6104ad565b005b6101a3600480360381019061019e9190611d94565b6105c4565b005b6101bf60048036038101906101ba9190611d94565b610624565b005b6101db60048036038101906101d69190611c9f565b610644565b6040516101e89190611d0d565b60405180910390f35b61020b60048036038101906102069190611de7565b6106ca565b6040516102189190611e23565b60405180910390f35b610229610781565b6040516102369190611c47565b60405180910390f35b61025960048036038101906102549190611e6a565b610813565b005b61027560048036038101906102709190611fdf565b610829565b005b610291600480360381019061028c9190611c9f565b61088b565b60405161029e9190611c47565b60405180910390f35b6102c160048036038101906102bc9190612062565b61093b565b6040516102ce9190611b9c565b60405180910390f35b6102f160048036038101906102ec9190612143565b6109cf565b005b60007f80ac58cd000000000000000000000000000000000000000000000000000000007bffffffffffffffffffffffffffffffffffffffffffffffffffffffff1916827bffffffffffffffffffffffffffffffffffffffffffffffffffffffff191614806103be57507f5b5e139f000000000000000000000000000000000000000000000000000000007bffffffffffffffffffffffffffffffffffffffffffffffffffffffff1916827bffffffffffffffffffffffffffffffffffffffffffffffffffffffff1916145b806103ce57506103cd82610aa8565b5b9050919050565b6060600080546103e4906121ea565b80601f0160208091040260200160405190810160405280929190818152602001828054610410906121ea565b801561045d5780601f106104325761010080835404028352916020019161045d565b820191906000526020600020905b81548152906001019060200180831161044057829003601f168201915b5050505050905090565b600061047282610b12565b6004600083815260200190815260200160002060009054906101000a900473ffffffffffffffffffffffffffffffffffffffff169050919050565b60006104b882610644565b90508073ffffffffffffffffffffffffffffffffffffffff168373ffffffffffffffffffffffffffffffffffffffff1603610528576040517f08c379a000000000000000000000000000000000000000000000000000000000815260040161051f9061228d565b60405180910390fd5b8073ffffffffffffffffffffffffffffffffffffffff16610547610b5d565b73ffffffffffffffffffffffffffffffffffffffff161480610576575061057581610570610b5d565b61093b565b5b6105b5576040517f08c379a00000000000000000000000000000000000000000000000000000000081526004016105ac9061231f565b60405180910390fd5b6105bf8383610b65565b505050565b6105d56105cf610b5d565b82610c1e565b610614576040517f08c379a000000000000000000000000000000000000000000000000000000000815260040161060b906123b1565b60405180910390fd5b61061f838383610cb3565b505050565b61063f83838360405180602001604052806000815250610829565b505050565b60008061065083610fac565b9050600073ffffffffffffffffffffffffffffffffffffffff168173ffffffffffffffffffffffffffffffffffffffff16036106c1576040517f08c379a00000000000000000000000000000000000000000000000000000000081526004016106b89061241d565b60405180910390fd5b80915050919050565b60008073ffffffffffffffffffffffffffffffffffffffff168273ffffffffffffffffffffffffffffffffffffffff160361073a576040517f08c379a0000000000000000000000000000000000000000000000000000000008152600401610731906124af565b60405180910390fd5b600360008373ffffffffffffffffffffffffffffffffffffffff1673ffffffffffffffffffffffffffffffffffffffff168152602001908152602001600020549050919050565b606060018054610790906121ea565b80601f01602080910402602001604051908101604052809291908181526020018280546107bc906121ea565b80156108095780601f106107de57610100808354040283529160200191610809565b820191906000526020600020905b8154815290600101906020018083116107ec57829003601f168201915b5050505050905090565b61082561081e610b5d565b8383610fe9565b5050565b61083a610834610b5d565b83610c1e565b610879576040517f08c379a0000000000000000000000000000000000000000000000000000000008152600401610870906123b1565b60405180910390fd5b61088584848484611155565b50505050565b6060600061090b600684815481106108a6576108a56124cf565b5b90600052602060002090600202016000016108c0856111b1565b600686815481106108d4576108d36124cf565b5b90600052602060002090600202016001016040516020016108f793929190612728565b60405160208183030381529060405261127f565b905060008160405160200161092091906127d1565b60405160208183030381529060405290508092505050919050565b6000600560008473ffffffffffffffffffffffffffffffffffffffff1673ffffffffffffffffffffffffffffffffffffffff16815260200190815260200160002060008373ffffffffffffffffffffffffffffffffffffffff1673ffffffffffffffffffffffffffffffffffffffff16815260200190815260200160002060009054906101000a900460ff16905092915050565b60006109db6007611416565b90506109e73382611424565b600660405180604001604052808581526020018481525090806001815401808255809150506001900390600052602060002090600202016000909190919091506000820151816000019081610a3c919061298a565b506020820151816001019081610a52919061298a565b505050610a78604051806060016040528060258152602001612fac602591398233611442565b610a8260076114e1565b505050565b60006a636f6e736f6c652e6c6f679050600080835160208501845afa505050565b60007f01ffc9a7000000000000000000000000000000000000000000000000000000007bffffffffffffffffffffffffffffffffffffffffffffffffffffffff1916827bffffffffffffffffffffffffffffffffffffffffffffffffffffffff1916149050919050565b610b1b816114f7565b610b5a576040517f08c379a0000000000000000000000000000000000000000000000000000000008152600401610b519061241d565b60405180910390fd5b50565b600033905090565b816004600083815260200190815260200160002060006101000a81548173ffffffffffffffffffffffffffffffffffffffff021916908373ffffffffffffffffffffffffffffffffffffffff160217905550808273ffffffffffffffffffffffffffffffffffffffff16610bd883610644565b73ffffffffffffffffffffffffffffffffffffffff167f8c5be1e5ebec7d5bd14f71427d1e84f3dd0314c0f7b2291e5b200ac8c7c3b92560405160405180910390a45050565b600080610c2a83610644565b90508073ffffffffffffffffffffffffffffffffffffffff168473ffffffffffffffffffffffffffffffffffffffff161480610c6c5750610c6b818561093b565b5b80610caa57508373ffffffffffffffffffffffffffffffffffffffff16610c9284610467565b73ffffffffffffffffffffffffffffffffffffffff16145b91505092915050565b8273ffffffffffffffffffffffffffffffffffffffff16610cd382610644565b73ffffffffffffffffffffffffffffffffffffffff1614610d29576040517f08c379a0000000000000000000000000000000000000000000000000000000008152600401610d2090612ace565b60405180910390fd5b600073ffffffffffffffffffffffffffffffffffffffff168273ffffffffffffffffffffffffffffffffffffffff1603610d98576040517f08c379a0000000000000000000000000000000000000000000000000000000008152600401610d8f90612b60565b60405180910390fd5b610da58383836001611538565b8273ffffffffffffffffffffffffffffffffffffffff16610dc582610644565b73ffffffffffffffffffffffffffffffffffffffff1614610e1b576040517f08c379a0000000000000000000000000000000000000000000000000000000008152600401610e1290612ace565b60405180910390fd5b6004600082815260200190815260200160002060006101000a81549073ffffffffffffffffffffffffffffffffffffffff02191690556001600360008573ffffffffffffffffffffffffffffffffffffffff1673ffffffffffffffffffffffffffffffffffffffff168152602001908152602001600020600082825403925050819055506001600360008473ffffffffffffffffffffffffffffffffffffffff1673ffffffffffffffffffffffffffffffffffffffff16815260200190815260200160002060008282540192505081905550816002600083815260200190815260200160002060006101000a81548173ffffffffffffffffffffffffffffffffffffffff021916908373ffffffffffffffffffffffffffffffffffffffff160217905550808273ffffffffffffffffffffffffffffffffffffffff168473ffffffffffffffffffffffffffffffffffffffff167fddf252ad1be2c89b69c2b068fc378daa952ba7f163c4a11628f55a4df523b3ef60405160405180910390a4610fa7838383600161153e565b505050565b60006002600083815260200190815260200160002060009054906101000a900473ffffffffffffffffffffffffffffffffffffffff169050919050565b8173ffffffffffffffffffffffffffffffffffffffff168373ffffffffffffffffffffffffffffffffffffffff1603611057576040517f08c379a000000000000000000000000000000000000000000000000000000000815260040161104e90612bcc565b60405180910390fd5b80600560008573ffffffffffffffffffffffffffffffffffffffff1673ffffffffffffffffffffffffffffffffffffffff16815260200190815260200160002060008473ffffffffffffffffffffffffffffffffffffffff1673ffffffffffffffffffffffffffffffffffffffff16815260200190815260200160002060006101000a81548160ff0219169083151502179055508173ffffffffffffffffffffffffffffffffffffffff168373ffffffffffffffffffffffffffffffffffffffff167f17307eab39ab6107e8899845ad3d59bd9653f200f220920489ca2b5937696c31836040516111489190611b9c565b60405180910390a3505050565b611160848484610cb3565b61116c84848484611544565b6111ab576040517f08c379a00000000000000000000000000000000000000000000000000000000081526004016111a290612c5e565b60405180910390fd5b50505050565b6060600060016111c0846116cb565b01905060008167ffffffffffffffff8111156111df576111de611eb4565b5b6040519080825280601f01601f1916602001820160405280156112115781602001600182028036833780820191505090505b509050600082602001820190505b600115611274578080600190039150507f3031323334353637383961626364656600000000000000000000000000000000600a86061a8153600a858161126857611267612c7e565b5b0494506000850361121f575b819350505050919050565b6060600082519050600081036112a75760405180602001604052806000815250915050611411565b600060036002836112b89190612cdc565b6112c29190612d10565b60046112ce9190612d41565b905060006020826112df9190612cdc565b67ffffffffffffffff8111156112f8576112f7611eb4565b5b6040519080825280601f01601f19166020018201604052801561132a5781602001600182028036833780820191505090505b5090506000604051806060016040528060408152602001612fd1604091399050600181016020830160005b868110156113ce5760038101905062ffffff818a015116603f8160121c168401518060081b905060ff603f83600c1c1686015116810190508060081b905060ff603f8360061c1686015116810190508060081b905060ff603f831686015116810190508060e01b90508084526004840193505050611355565b5060038606600181146113e857600281146113f857611403565b613d3d60f01b6002830352611403565b603d60f81b60018303525b508484525050819450505050505b919050565b600081600001549050919050565b61143e82826040518060200160405280600081525061181e565b5050565b6114dc83838360405160240161145a93929190612d83565b6040516020818303038152906040527f1c7ec448000000000000000000000000000000000000000000000000000000007bffffffffffffffffffffffffffffffffffffffffffffffffffffffff19166020820180517bffffffffffffffffffffffffffffffffffffffffffffffffffffffff8381831617835250505050611879565b505050565b6001816000016000828254019250508190555050565b60008073ffffffffffffffffffffffffffffffffffffffff1661151983610fac565b73ffffffffffffffffffffffffffffffffffffffff1614159050919050565b50505050565b50505050565b60006115658473ffffffffffffffffffffffffffffffffffffffff16611893565b156116be578373ffffffffffffffffffffffffffffffffffffffff1663150b7a0261158e610b5d565b8786866040518563ffffffff1660e01b81526004016115b09493929190612e16565b6020604051808303816000875af19250505080156115ec57506040513d601f19601f820116820180604052508101906115e99190612e77565b60015b61166e573d806000811461161c576040519150601f19603f3d011682016040523d82523d6000602084013e611621565b606091505b506000815103611666576040517f08c379a000000000000000000000000000000000000000000000000000000000815260040161165d90612c5e565b60405180910390fd5b805181602001fd5b63150b7a0260e01b7bffffffffffffffffffffffffffffffffffffffffffffffffffffffff1916817bffffffffffffffffffffffffffffffffffffffffffffffffffffffff1916149150506116c3565b600190505b949350505050565b600080600090507a184f03e93ff9f4daa797ed6e38ed64bf6a1f0100000000000000008310611729577a184f03e93ff9f4daa797ed6e38ed64bf6a1f010000000000000000838161171f5761171e612c7e565b5b0492506040810190505b6d04ee2d6d415b85acef81000000008310611766576d04ee2d6d415b85acef8100000000838161175c5761175b612c7e565b5b0492506020810190505b662386f26fc10000831061179557662386f26fc10000838161178b5761178a612c7e565b5b0492506010810190505b6305f5e10083106117be576305f5e10083816117b4576117b3612c7e565b5b0492506008810190505b61271083106117e35761271083816117d9576117d8612c7e565b5b0492506004810190505b6064831061180657606483816117fc576117fb612c7e565b5b0492506002810190505b600a8310611815576001810190505b80915050919050565b61182883836118b6565b6118356000848484611544565b611874576040517f08c379a000000000000000000000000000000000000000000000000000000000815260040161186b90612c5e565b60405180910390fd5b505050565b61189081611888610a87611ad3565b63ffffffff16565b50565b6000808273ffffffffffffffffffffffffffffffffffffffff163b119050919050565b600073ffffffffffffffffffffffffffffffffffffffff168273ffffffffffffffffffffffffffffffffffffffff1603611925576040517f08c379a000000000000000000000000000000000000000000000000000000000815260040161191c90612ef0565b60405180910390fd5b61192e816114f7565b1561196e576040517f08c379a000000000000000000000000000000000000000000000000000000000815260040161196590612f5c565b60405180910390fd5b61197c600083836001611538565b611985816114f7565b156119c5576040517f08c379a00000000000000000000000000000000000000000000000000000000081526004016119bc90612f5c565b60405180910390fd5b6001600360008473ffffffffffffffffffffffffffffffffffffffff1673ffffffffffffffffffffffffffffffffffffffff16815260200190815260200160002060008282540192505081905550816002600083815260200190815260200160002060006101000a81548173ffffffffffffffffffffffffffffffffffffffff021916908373ffffffffffffffffffffffffffffffffffffffff160217905550808273ffffffffffffffffffffffffffffffffffffffff16600073ffffffffffffffffffffffffffffffffffffffff167fddf252ad1be2c89b69c2b068fc378daa952ba7f163c4a11628f55a4df523b3ef60405160405180910390a4611acf60008383600161153e565b5050565b611ade819050919050565b611ae6612f7c565b565b6000604051905090565b600080fd5b600080fd5b60007fffffffff0000000000000000000000000000000000000000000000000000000082169050919050565b611b3181611afc565b8114611b3c57600080fd5b50565b600081359050611b4e81611b28565b92915050565b600060208284031215611b6a57611b69611af2565b5b6000611b7884828501611b3f565b91505092915050565b60008115159050919050565b611b9681611b81565b82525050565b6000602082019050611bb16000830184611b8d565b92915050565b600081519050919050565b600082825260208201905092915050565b60005b83811015611bf1578082015181840152602081019050611bd6565b60008484015250505050565b6000601f19601f8301169050919050565b6000611c1982611bb7565b611c238185611bc2565b9350611c33818560208601611bd3565b611c3c81611bfd565b840191505092915050565b60006020820190508181036000830152611c618184611c0e565b905092915050565b6000819050919050565b611c7c81611c69565b8114611c8757600080fd5b50565b600081359050611c9981611c73565b92915050565b600060208284031215611cb557611cb4611af2565b5b6000611cc384828501611c8a565b91505092915050565b600073ffffffffffffffffffffffffffffffffffffffff82169050919050565b6000611cf782611ccc565b9050919050565b611d0781611cec565b82525050565b6000602082019050611d226000830184611cfe565b92915050565b611d3181611cec565b8114611d3c57600080fd5b50565b600081359050611d4e81611d28565b92915050565b60008060408385031215611d6b57611d6a611af2565b5b6000611d7985828601611d3f565b9250506020611d8a85828601611c8a565b9150509250929050565b600080600060608486031215611dad57611dac611af2565b5b6000611dbb86828701611d3f565b9350506020611dcc86828701611d3f565b9250506040611ddd86828701611c8a565b9150509250925092565b600060208284031215611dfd57611dfc611af2565b5b6000611e0b84828501611d3f565b91505092915050565b611e1d81611c69565b82525050565b6000602082019050611e386000830184611e14565b92915050565b611e4781611b81565b8114611e5257600080fd5b50565b600081359050611e6481611e3e565b92915050565b60008060408385031215611e8157611e80611af2565b5b6000611e8f85828601611d3f565b9250506020611ea085828601611e55565b9150509250929050565b600080fd5b600080fd5b7f4e487b7100000000000000000000000000000000000000000000000000000000600052604160045260246000fd5b611eec82611bfd565b810181811067ffffffffffffffff82111715611f0b57611f0a611eb4565b5b80604052505050565b6000611f1e611ae8565b9050611f2a8282611ee3565b919050565b600067ffffffffffffffff821115611f4a57611f49611eb4565b5b611f5382611bfd565b9050602081019050919050565b82818337600083830152505050565b6000611f82611f7d84611f2f565b611f14565b905082815260208101848484011115611f9e57611f9d611eaf565b5b611fa9848285611f60565b509392505050565b600082601f830112611fc657611fc5611eaa565b5b8135611fd6848260208601611f6f565b91505092915050565b60008060008060808587031215611ff957611ff8611af2565b5b600061200787828801611d3f565b945050602061201887828801611d3f565b935050604061202987828801611c8a565b925050606085013567ffffffffffffffff81111561204a57612049611af7565b5b61205687828801611fb1565b91505092959194509250565b6000806040838503121561207957612078611af2565b5b600061208785828601611d3f565b925050602061209885828601611d3f565b9150509250929050565b600067ffffffffffffffff8211156120bd576120bc611eb4565b5b6120c682611bfd565b9050602081019050919050565b60006120e66120e1846120a2565b611f14565b90508281526020810184848401111561210257612101611eaf565b5b61210d848285611f60565b509392505050565b600082601f83011261212a57612129611eaa565b5b813561213a8482602086016120d3565b91505092915050565b6000806040838503121561215a57612159611af2565b5b600083013567ffffffffffffffff81111561217857612177611af7565b5b61218485828601612115565b925050602083013567ffffffffffffffff8111156121a5576121a4611af7565b5b6121b185828601612115565b9150509250929050565b7f4e487b7100000000000000000000000000000000000000000000000000000000600052602260045260246000fd5b6000600282049050600182168061220257607f821691505b602082108103612215576122146121bb565b5b50919050565b7f4552433732313a20617070726f76616c20746f2063757272656e74206f776e6560008201527f7200000000000000000000000000000000000000000000000000000000000000602082015250565b6000612277602183611bc2565b91506122828261221b565b604082019050919050565b600060208201905081810360008301526122a68161226a565b9050919050565b7f4552433732313a20617070726f76652063616c6c6572206973206e6f7420746f60008201527f6b656e206f776e6572206f7220617070726f76656420666f7220616c6c000000602082015250565b6000612309603d83611bc2565b9150612314826122ad565b604082019050919050565b60006020820190508181036000830152612338816122fc565b9050919050565b7f4552433732313a2063616c6c6572206973206e6f7420746f6b656e206f776e6560008201527f72206f7220617070726f76656400000000000000000000000000000000000000602082015250565b600061239b602d83611bc2565b91506123a68261233f565b604082019050919050565b600060208201905081810360008301526123ca8161238e565b9050919050565b7f4552433732313a20696e76616c696420746f6b656e2049440000000000000000600082015250565b6000612407601883611bc2565b9150612412826123d1565b602082019050919050565b60006020820190508181036000830152612436816123fa565b9050919050565b7f4552433732313a2061646472657373207a65726f206973206e6f74206120766160008201527f6c6964206f776e65720000000000000000000000000000000000000000000000602082015250565b6000612499602983611bc2565b91506124a48261243d565b604082019050919050565b600060208201905081810360008301526124c88161248c565b9050919050565b7f4e487b7100000000000000000000000000000000000000000000000000000000600052603260045260246000fd5b600081905092915050565b7f7b226e616d65223a202200000000000000000000000000000000000000000000600082015250565b600061253f600a836124fe565b915061254a82612509565b600a82019050919050565b60008190508160005260206000209050919050565b60008154612577816121ea565b61258181866124fe565b9450600182166000811461259c57600181146125b1576125e4565b60ff19831686528115158202860193506125e4565b6125ba85612555565b60005b838110156125dc578154818901526001820191506020810190506125bd565b838801955050505b50505092915050565b7f202d2d204e465420233a20000000000000000000000000000000000000000000600082015250565b6000612623600b836124fe565b915061262e826125ed565b600b82019050919050565b600061264482611bb7565b61264e81856124fe565b935061265e818560208601611bd3565b80840191505092915050565b7f222c20226465736372697074696f6e223a2022416e2065706963204e4654222c60008201527f2022696d616765223a2022697066733a2f2f0000000000000000000000000000602082015250565b60006126c66032836124fe565b91506126d18261266a565b603282019050919050565b7f227d000000000000000000000000000000000000000000000000000000000000600082015250565b60006127126002836124fe565b915061271d826126dc565b600282019050919050565b600061273382612532565b915061273f828661256a565b915061274a82612616565b91506127568285612639565b9150612761826126b9565b915061276d828461256a565b915061277882612705565b9150819050949350505050565b7f646174613a6170706c69636174696f6e2f6a736f6e3b6261736536342c000000600082015250565b60006127bb601d836124fe565b91506127c682612785565b601d82019050919050565b60006127dc826127ae565b91506127e88284612639565b915081905092915050565b60006020601f8301049050919050565b600082821b905092915050565b6000600883026128407fffffffffffffffffffffffffffffffffffffffffffffffffffffffffffffffff82612803565b61284a8683612803565b95508019841693508086168417925050509392505050565b6000819050919050565b600061288761288261287d84611c69565b612862565b611c69565b9050919050565b6000819050919050565b6128a18361286c565b6128b56128ad8261288e565b848454612810565b825550505050565b600090565b6128ca6128bd565b6128d5818484612898565b505050565b5b818110156128f9576128ee6000826128c2565b6001810190506128db565b5050565b601f82111561293e5761290f81612555565b612918846127f3565b81016020851015612927578190505b61293b612933856127f3565b8301826128da565b50505b505050565b600082821c905092915050565b600061296160001984600802612943565b1980831691505092915050565b600061297a8383612950565b9150826002028217905092915050565b61299382611bb7565b67ffffffffffffffff8111156129ac576129ab611eb4565b5b6129b682546121ea565b6129c18282856128fd565b600060209050601f8311600181146129f457600084156129e2578287015190505b6129ec858261296e565b865550612a54565b601f198416612a0286612555565b60005b82811015612a2a57848901518255600182019150602085019450602081019050612a05565b86831015612a475784890151612a43601f891682612950565b8355505b6001600288020188555050505b505050505050565b7f4552433732313a207472616e736665722066726f6d20696e636f72726563742060008201527f6f776e6572000000000000000000000000000000000000000000000000000000602082015250565b6000612ab8602583611bc2565b9150612ac382612a5c565b604082019050919050565b60006020820190508181036000830152612ae781612aab565b9050919050565b7f4552433732313a207472616e7366657220746f20746865207a65726f2061646460008201527f7265737300000000000000000000000000000000000000000000000000000000602082015250565b6000612b4a602483611bc2565b9150612b5582612aee565b604082019050919050565b60006020820190508181036000830152612b7981612b3d565b9050919050565b7f4552433732313a20617070726f766520746f2063616c6c657200000000000000600082015250565b6000612bb6601983611bc2565b9150612bc182612b80565b602082019050919050565b60006020820190508181036000830152612be581612ba9565b9050919050565b7f4552433732313a207472616e7366657220746f206e6f6e20455243373231526560008201527f63656976657220696d706c656d656e7465720000000000000000000000000000602082015250565b6000612c48603283611bc2565b9150612c5382612bec565b604082019050919050565b60006020820190508181036000830152612c7781612c3b565b9050919050565b7f4e487b7100000000000000000000000000000000000000000000000000000000600052601260045260246000fd5b7f4e487b7100000000000000000000000000000000000000000000000000000000600052601160045260246000fd5b6000612ce782611c69565b9150612cf283611c69565b9250828201905080821115612d0a57612d09612cad565b5b92915050565b6000612d1b82611c69565b9150612d2683611c69565b925082612d3657612d35612c7e565b5b828204905092915050565b6000612d4c82611c69565b9150612d5783611c69565b9250828202612d6581611c69565b91508282048414831517612d7c57612d7b612cad565b5b5092915050565b60006060820190508181036000830152612d9d8186611c0e565b9050612dac6020830185611e14565b612db96040830184611cfe565b949350505050565b600081519050919050565b600082825260208201905092915050565b6000612de882612dc1565b612df28185612dcc565b9350612e02818560208601611bd3565b612e0b81611bfd565b840191505092915050565b6000608082019050612e2b6000830187611cfe565b612e386020830186611cfe565b612e456040830185611e14565b8181036060830152612e578184612ddd565b905095945050505050565b600081519050612e7181611b28565b92915050565b600060208284031215612e8d57612e8c611af2565b5b6000612e9b84828501612e62565b91505092915050565b7f4552433732313a206d696e7420746f20746865207a65726f2061646472657373600082015250565b6000612eda602083611bc2565b9150612ee582612ea4565b602082019050919050565b60006020820190508181036000830152612f0981612ecd565b9050919050565b7f4552433732313a20746f6b656e20616c7265616479206d696e74656400000000600082015250565b6000612f46601c83611bc2565b9150612f5182612f10565b602082019050919050565b60006020820190508181036000830152612f7581612f39565b9050919050565b7f4e487b7100000000000000000000000000000000000000000000000000000000600052605160045260246000fdfe416e204e465420772f20494420257320686173206265656e206d696e74656420746f2025734142434445464748494a4b4c4d4e4f505152535455565758595a6162636465666768696a6b6c6d6e6f707172737475767778797a303132333435363738392b2fa26469706673582212202f41ed1739e161238bb13a3bc71b91cad296648b2ad838259707aaf9bb2695f764736f6c63430008130033",
  "linkReferences": {},
  "deployedLinkReferences": {}
}